{
  "_format": "hh-sol-artifact-1",
  "contractName": "Crowdfunding",
  "sourceName": "contracts/Crowdfunding.sol",
  "abi": [
    {
      "inputs": [
        {
          "internalType": "uint256",
          "name": "_projectId",
          "type": "uint256"
        }
      ],
      "name": "contribute",
      "outputs": [],
      "stateMutability": "payable",
      "type": "function"
    },
    {
      "inputs": [
        {
          "internalType": "uint256",
          "name": "_goal",
          "type": "uint256"
        },
        {
          "internalType": "uint256",
          "name": "_duration",
          "type": "uint256"
        }
      ],
      "name": "createProject",
      "outputs": [],
      "stateMutability": "nonpayable",
      "type": "function"
    },
    {
      "inputs": [],
      "name": "projectCount",
      "outputs": [
        {
          "internalType": "uint256",
          "name": "",
          "type": "uint256"
        }
      ],
      "stateMutability": "view",
      "type": "function"
    },
    {
      "inputs": [
        {
          "internalType": "uint256",
          "name": "",
          "type": "uint256"
        }
      ],
      "name": "projects",
      "outputs": [
        {
          "internalType": "address payable",
          "name": "creator",
          "type": "address"
        },
        {
          "internalType": "uint256",
          "name": "goal",
          "type": "uint256"
        },
        {
          "internalType": "uint256",
          "name": "deadline",
          "type": "uint256"
        },
        {
          "internalType": "uint256",
          "name": "fundsRaised",
          "type": "uint256"
        },
        {
          "internalType": "bool",
          "name": "isFunded",
          "type": "bool"
        }
      ],
      "stateMutability": "view",
      "type": "function"
    },
    {
      "inputs": [
        {
          "internalType": "uint256",
          "name": "_projectId",
          "type": "uint256"
        }
      ],
      "name": "withdrawFunds",
      "outputs": [],
      "stateMutability": "nonpayable",
      "type": "function"
    }
  ],
  "bytecode": "0x608060405234801561001057600080fd5b50610bff806100206000396000f3fe60806040526004361061004a5760003560e01c806302da667b1461004f578063107046bd14610078578063155dd5ee146100b957806336fbad26146100e2578063c1cbbca71461010d575b600080fd5b34801561005b57600080fd5b506100766004803603810190610071919061061b565b610129565b005b34801561008457600080fd5b5061009f600480360381019061009a919061065b565b610243565b6040516100b09594939291906106f3565b60405180910390f35b3480156100c557600080fd5b506100e060048036038101906100db919061065b565b6102a6565b005b3480156100ee57600080fd5b506100f76104c3565b6040516101049190610746565b60405180910390f35b6101276004803603810190610122919061065b565b6104c9565b005b6000821161016c576040517f08c379a0000000000000000000000000000000000000000000000000000000008152600401610163906107be565b60405180910390fd5b600081116101af576040517f08c379a00000000000000000000000000000000000000000000000000000000081526004016101a69061082a565b60405180910390fd5b6000808154809291906101c190610879565b9190505550600060016000805481526020019081526020016000209050338160000160006101000a81548173ffffffffffffffffffffffffffffffffffffffff021916908373ffffffffffffffffffffffffffffffffffffffff160217905550828160010181905550814261023691906108c1565b8160020181905550505050565b60016020528060005260406000206000915090508060000160009054906101000a900473ffffffffffffffffffffffffffffffffffffffff16908060010154908060020154908060030154908060040160009054906101000a900460ff16905085565b60006001600083815260200190815260200160002090508060000160009054906101000a900473ffffffffffffffffffffffffffffffffffffffff1673ffffffffffffffffffffffffffffffffffffffff163373ffffffffffffffffffffffffffffffffffffffff161461034f576040517f08c379a000000000000000000000000000000000000000000000000000000000815260040161034690610967565b60405180910390fd5b8060020154421015610396576040517f08c379a000000000000000000000000000000000000000000000000000000000815260040161038d906109d3565b60405180910390fd5b8060010154816003015410156103e1576040517f08c379a00000000000000000000000000000000000000000000000000000000081526004016103d890610a3f565b60405180910390fd5b8060040160009054906101000a900460ff1615610433576040517f08c379a000000000000000000000000000000000000000000000000000000000815260040161042a90610aab565b60405180910390fd5b60018160040160006101000a81548160ff0219169083151502179055508060000160009054906101000a900473ffffffffffffffffffffffffffffffffffffffff1673ffffffffffffffffffffffffffffffffffffffff166108fc82600301549081150290604051600060405180830381858888f193505050501580156104be573d6000803e3d6000fd5b505050565b60005481565b600060016000838152602001908152602001600020905080600201544210610526576040517f08c379a000000000000000000000000000000000000000000000000000000000815260040161051d90610b17565b60405180910390fd5b60003411610569576040517f08c379a000000000000000000000000000000000000000000000000000000000815260040161056090610ba9565b60405180910390fd5b3481600301600082825461057d91906108c1565b92505081905550348160050160003373ffffffffffffffffffffffffffffffffffffffff1673ffffffffffffffffffffffffffffffffffffffff16815260200190815260200160002060008282546105d591906108c1565b925050819055505050565b600080fd5b6000819050919050565b6105f8816105e5565b811461060357600080fd5b50565b600081359050610615816105ef565b92915050565b60008060408385031215610632576106316105e0565b5b600061064085828601610606565b925050602061065185828601610606565b9150509250929050565b600060208284031215610671576106706105e0565b5b600061067f84828501610606565b91505092915050565b600073ffffffffffffffffffffffffffffffffffffffff82169050919050565b60006106b382610688565b9050919050565b6106c3816106a8565b82525050565b6106d2816105e5565b82525050565b60008115159050919050565b6106ed816106d8565b82525050565b600060a08201905061070860008301886106ba565b61071560208301876106c9565b61072260408301866106c9565b61072f60608301856106c9565b61073c60808301846106e4565b9695505050505050565b600060208201905061075b60008301846106c9565b92915050565b600082825260208201905092915050565b7f476f616c206d7573742062652067726561746572207468616e207a65726f0000600082015250565b60006107a8601e83610761565b91506107b382610772565b602082019050919050565b600060208201905081810360008301526107d78161079b565b9050919050565b7f4475726174696f6e206d75737420626520706f73697469766500000000000000600082015250565b6000610814601983610761565b915061081f826107de565b602082019050919050565b6000602082019050818103600083015261084381610807565b9050919050565b7f4e487b7100000000000000000000000000000000000000000000000000000000600052601160045260246000fd5b6000610884826105e5565b91507fffffffffffffffffffffffffffffffffffffffffffffffffffffffffffffffff82036108b6576108b561084a565b5b600182019050919050565b60006108cc826105e5565b91506108d7836105e5565b92508282019050808211156108ef576108ee61084a565b5b92915050565b7f4f6e6c792070726f6a6563742063726561746f722063616e207769746864726160008201527f7700000000000000000000000000000000000000000000000000000000000000602082015250565b6000610951602183610761565b915061095c826108f5565b604082019050919050565b6000602082019050818103600083015261098081610944565b9050919050565b7f43616e6e6f74207769746864726177206265666f726520646561646c696e6500600082015250565b60006109bd601f83610761565b91506109c882610987565b602082019050919050565b600060208201905081810360008301526109ec816109b0565b9050919050565b7f46756e64696e6720676f616c206e6f7420726561636865640000000000000000600082015250565b6000610a29601883610761565b9150610a34826109f3565b602082019050919050565b60006020820190508181036000830152610a5881610a1c565b9050919050565b7f46756e647320616c72656164792077697468647261776e000000000000000000600082015250565b6000610a95601783610761565b9150610aa082610a5f565b602082019050919050565b60006020820190508181036000830152610ac481610a88565b9050919050565b7f50726f6a6563742066756e64696e6720706572696f642068617320656e646564600082015250565b6000610b01602083610761565b9150610b0c82610acb565b602082019050919050565b60006020820190508181036000830152610b3081610af4565b9050919050565b7f436f6e747269627574696f6e206d75737420626520677265617465722074686160008201527f6e207a65726f0000000000000000000000000000000000000000000000000000602082015250565b6000610b93602683610761565b9150610b9e82610b37565b604082019050919050565b60006020820190508181036000830152610bc281610b86565b905091905056fea2646970667358221220fb84cbd44f0de4c022165fc8e2a707ae3e9bd3635d3ca02049da04595a6babf564736f6c63430008120033",
  "linkReferences": {},
  "deployedLinkReferences": {}
}